{
    "contractName": "MerkleSnapshot",
    "abi": [
        {
            "constant": true,
            "inputs": [
                {
                    "internalType": "bytes32",
                    "name": "",
                    "type": "bytes32"
                }
            ],
            "name": "snapshot",
            "outputs": [
                {
                    "internalType": "bytes32",
                    "name": "",
                    "type": "bytes32"
                }
            ],
            "payable": false,
            "stateMutability": "view",
            "type": "function"
        },
        {
            "constant": true,
            "inputs": [],
            "name": "targetContractId",
            "outputs": [
                {
                    "internalType": "bytes32",
                    "name": "",
                    "type": "bytes32"
                }
            ],
            "payable": false,
            "stateMutability": "view",
            "type": "function"
        },
        {
            "constant": false,
            "inputs": [
                {
                    "internalType": "address",
                    "name": "_controller",
                    "type": "address"
                }
            ],
            "name": "setController",
            "outputs": [],
            "payable": false,
            "stateMutability": "nonpayable",
            "type": "function"
        },
        {
            "constant": true,
            "inputs": [],
            "name": "controller",
            "outputs": [
                {
                    "internalType": "contract IController",
                    "name": "",
                    "type": "address"
                }
            ],
            "payable": false,
            "stateMutability": "view",
            "type": "function"
        },
        {
            "inputs": [
                {
                    "internalType": "address",
                    "name": "_controller",
                    "type": "address"
                }
            ],
            "payable": false,
            "stateMutability": "nonpayable",
            "type": "constructor"
        },
        {
            "anonymous": false,
            "inputs": [
                {
                    "indexed": false,
                    "internalType": "address",
                    "name": "controller",
                    "type": "address"
                }
            ],
            "name": "SetController",
            "type": "event"
        },
        {
            "anonymous": false,
            "inputs": [
                {
                    "indexed": false,
                    "internalType": "string",
                    "name": "param",
                    "type": "string"
                }
            ],
            "name": "ParameterUpdate",
            "type": "event"
        },
        {
            "constant": false,
            "inputs": [
                {
                    "internalType": "bytes32",
                    "name": "_id",
                    "type": "bytes32"
                },
                {
                    "internalType": "bytes32",
                    "name": "_root",
                    "type": "bytes32"
                }
            ],
            "name": "setSnapshot",
            "outputs": [],
            "payable": false,
            "stateMutability": "nonpayable",
            "type": "function"
        },
        {
            "constant": true,
            "inputs": [
                {
                    "internalType": "bytes32",
                    "name": "_id",
                    "type": "bytes32"
                },
                {
                    "internalType": "bytes32[]",
                    "name": "_proof",
                    "type": "bytes32[]"
                },
                {
                    "internalType": "bytes32",
                    "name": "_leaf",
                    "type": "bytes32"
                }
            ],
            "name": "verify",
            "outputs": [
                {
                    "internalType": "bool",
                    "name": "",
                    "type": "bool"
                }
            ],
            "payable": false,
            "stateMutability": "view",
            "type": "function"
        }
    ],
    "bytecode": "0x608060405234801561001057600080fd5b506040516105ca3803806105ca8339818101604052602081101561003357600080fd5b5051600080546001600160a01b039092166001600160a01b0319909216919091179055610565806100656000396000f3fe608060405234801561001057600080fd5b50600436106100625760003560e01c80630a02831c146100675780631ac79c41146100f257806351720b41146101215780635824adf41461012957806392eefe9b1461014e578063f77c479114610174575b600080fd5b6100de6004803603606081101561007d57600080fd5b8135919081019060408101602082013564010000000081111561009f57600080fd5b8201836020820111156100b157600080fd5b803590602001918460208302840111640100000000831117156100d357600080fd5b919350915035610198565b604080519115158252519081900360200190f35b61010f6004803603602081101561010857600080fd5b503561022b565b60408051918252519081900360200190f35b61010f61023d565b61014c6004803603604081101561013f57600080fd5b5080359060200135610243565b005b61014c6004803603602081101561016457600080fd5b50356001600160a01b0316610375565b61017c610428565b604080516001600160a01b039092168252519081900360200190f35b60006101e584848080602002602001604051908101604052809392919081815260200183836020028082843760009201829052508a81526002602052604090205492508691506104379050565b6102205760405162461bcd60e51b815260040180806020018281038252602d815260200180610504602d913960400191505060405180910390fd5b506001949350505050565b60026020526000908152604090205481565b60015481565b6000809054906101000a90046001600160a01b03166001600160a01b0316638da5cb5b6040518163ffffffff1660e01b815260040160206040518083038186803b15801561029057600080fd5b505afa1580156102a4573d6000803e3d6000fd5b505050506040513d60208110156102ba57600080fd5b50516001600160a01b03163314610318576040805162461bcd60e51b815260206004820152601f60248201527f63616c6c6572206d75737420626520436f6e74726f6c6c6572206f776e657200604482015290519081900360640190fd5b600082815260026020526040902054156103635760405162461bcd60e51b81526004018080602001828103825260238152602001806104e16023913960400191505060405180910390fd5b60009182526002602052604090912055565b6000546001600160a01b031633146103d4576040805162461bcd60e51b815260206004820152601960248201527f63616c6c6572206d75737420626520436f6e74726f6c6c657200000000000000604482015290519081900360640190fd5b600080546001600160a01b0383166001600160a01b0319909116811790915560408051918252517f4ff638452bbf33c012645d18ae6f05515ff5f2d1dfb0cece8cbf018c60903f709181900360200190a150565b6000546001600160a01b031681565b600081815b85518110156104d557600086828151811061045357fe5b6020026020010151905080831161049a57828160405160200180838152602001828152602001925050506040516020818303038152906040528051906020012092506104cc565b808360405160200180838152602001828152602001925050506040516020818303038152906040528051906020012092505b5060010161043c565b50909214939250505056fe536e617073686f7420726f6f7420666f7220494420616c7265616479206578697374734d65726b6c652070726f6f6620666f72207468652070726f7669646564206c65616620697320696e76616c6964a265627a7a723158206bef66e187dea62d03c4c6b379021589d00d9a5967a55eec28da2c3d7822c82664736f6c634300050b0032",
    "source": "pragma solidity ^0.5.11;\n\nimport \"../zeppelin//MerkleProof.sol\";\nimport \"../ManagerProxyTarget.sol\";\n\n\ncontract MerkleSnapshot is ManagerProxyTarget{\n    mapping (bytes32 => bytes32) public snapshot;\n\n    constructor(address _controller) public Manager(_controller) {}\n\n    function setSnapshot(bytes32 _id, bytes32 _root) external onlyControllerOwner {\n        require(snapshot[_id] == bytes32(0), \"Snapshot root for ID already exists\");\n        snapshot[_id] = _root;\n    }\n\n    function verify(bytes32 _id, bytes32[] calldata _proof, bytes32 _leaf) external view returns (bool) {\n        require(\n            MerkleProof.verify(_proof, snapshot[_id], _leaf),\n            \"Merkle proof for the provided leaf is invalid\"\n        );\n\n        return true;\n    }\n}",
    "sourcePath": "/Users/nico/Desktop/livepeer/protocol/contracts/snapshots/MerkleSnapshot.sol",
    "compiler": {
        "name": "solc",
        "version": "0.5.11+commit.22be8592.Linux.g++"
    },
    "schemaVersion": "3.2.2",
    "updatedAt": "2020-09-23T19:46:20.497Z",
    "devdoc": {
        "methods": {
            "setController(address)": {
                "params": {
                    "_controller": "Controller contract address"
                }
            }
        }
    },
    "userdoc": {
        "methods": {
            "setController(address)": {
                "notice": "Set controller. Only callable by current controller"
            }
        }
    }
}